:020000040800F2
:100000000807002079020008BD1A0008111800082E
:10001000B91A000871040008E91C0008000000007B
:10002000000000000000000000000000C51A0008E9
:100030007504000800000000C11A0008C91A000871
:10004000930200089302000893020008930200083C
:10005000930200089302000893020008930200082C
:100060007904000893020008930200089302000834
:10007000930200089302000893020008930200080C
:1000800093020008930200089302000893020008FC
:1000900093020008930200089302000893020008EC
:1000A000930200088D1B00089302000893020008C9
:1000B00093020008930200089302000893020008CC
:1000C00093020008930200089302000893020008BC
:1000D00093020008930200089302000893020008AC
:1000E000930200089302000893020008930200089C
:1000F000991B00089302000893020008930200086D
:10010000930200089302000893020008930200087B
:10011000930200089302000893020008930200086B
:10012000930200089302000893020008930200085B
:10013000930200089302000893020008930200084B
:10014000930200089302000893020008930200083B
:10015000930200089302000893020008930200082B
:10016000930200089302000893020008930200081B
:1001700093020008930200089302000800000000A8
:1001800093020008930200089302000893020008FB
:1001900093020008930200089302000893020008EB
:1001A00000000000000000009302000800F002F8C8
:1001B00000F052F814A696E8000CB244B344DA45B5
:1001C00001D100F049F8BAE80F000FA696E8300018
:1001D000A5EB040504EB0607AAEB0704A7F101074A
:1001E0004FEA15154FEA3414A4F10104AC4201D3CF
:1001F00000F032F813F0010F18BFFB1A43F00103AF
:1002000000F001F8DBE71847601B0000801B0000CE
:10021000103A24BF78C878C1FAD8520724BF30C832
:1002200030C144BF04680C60704700007047000094
:100230000023002400250026103A28BF78C1FBD8EF
:10024000520728BF30C148BF0B6070471FB501F08F
:100250005EFD1FBD10B510BD00F0D0F81146FFF7D0
:10026000F5FF01F043FD00F0EEF803B4FFF7F2FFF5
:1002700003BC00F0F5F80000094880470948004732
:10028000FEE7FEE7FEE7FEE7FEE7FEE7FEE7FEE746
:10029000FEE7FEE704480549054A064B70470000A3
:1002A000791B0008AD0100080801002008070020A4
:1002B000080300200803002053EA020C00F06980C4
:1002C0002DE9F04B4FF00006002B1FBFB3FA83F56A
:1002D00003FA05F424FA05F65E4012BF1643B2FA9B
:1002E00082F502FA05F4C5F120051EBF22FA05FCCD
:1002F00044EA0C04203556EA044C4FEA144418BF73
:10030000641C4FF000084FF00009904271EB030CA1
:1003100039D3002919BFB1FA81F701FA07F6B0FA0B
:1003200080F700FA07F6C7F120071EBF20FA07FC86
:1003300046EA0C062037B6FBF4FCA7EB0507103F96
:1003400007F01F0BCBF120062CFA06F60CFA0BFB7C
:1003500044BFB3460026202FA4BF5E464FF0000BDB
:100360005BEA060C08BF4FF0010B19EB0B0948EBD9
:100370000608ABFB027C06FB02CC0BFB03CCC01BCC
:1003800071EB0C01C1E70B46024641464846BDE809
:10039000F08B13B5084318BF4FF0FF300146AFF3A1
:1003A0000080BDE81C4070474FF0000200B51346C6
:1003B00094469646203922BFA0E80C50A0E80C5085
:1003C000B1F12001BFF4F7AF090728BFA0E80C5036
:1003D00048BF0CC05DF804EB890028BF40F8042B2F
:1003E00008BF704748BF20F8022B11F0804F18BF9C
:1003F00000F8012B7047704770477047754600F052
:100400002BF8AE4605006946534620F007008546A6
:1004100018B020B5FFF73EFFBDE820404FF00006C2
:100420004FF000074FF000084FF0000BAC46ACE86F
:10043000C009ACE8C009ACE8C009ACE8C00921F0CB
:1004400007018D46704710B50446AFF30080204683
:10045000BDE81040FFF709BF0048704710000020BA
:1004600001491820ABBEFEE72600020070470000DD
:10047000FEE7000070470000042000F02DB80000E7
:1004800072B600BFFEE70000042818BF704710B521
:1004900040F27004C2F20004206848B140F27400D7
:1004A000C2F20000042101F041F9002208E000BF7F
:1004B00040F27400C2F20000042101F091F8012220
:1004C00041F20040C4F202004FF480412260BDE8D6
:1004D000104000F0DDB8000043F61441C4F2010101
:1004E0000A68024214BF08607047FFF7CDBF0000E2
:1004F0002DE9F04F83B000F1200200F13E4742F2B7
:100500000045009207F1FF77C4F202050A224FEA84
:10051000B726A84208BF092200254FF000084FF077
:100520000009092E38BF4FEAB72201920AE000BF46
:1005300009F1010908F10208B9F1100F05F10405EC
:1005400000F0A2800F68012202FA09FE17EA0E0AE3
:10055000EED0D1F804C003220CF003077E1E02FA8D
:1005600008F4012E6FEA040B12D88468CE6804EAFE
:100570000B0406FA08F634438460446824EA0E0645
:10058000CCF3001404FA09F42643466004E000BFEB
:10059000032F01D103271EE0C6688C6806EA0B060C
:1005A00004FA08F42643022FC66014D16FF0030248
:1005B000009E02EA590756F807C005F01C040F22F6
:1005C0000B69A2402CEA0202A3401A43F251D1F86F
:1005D00004C00CF00307026807FA08F302EA0B02F2
:1005E0001A431CF4403F0260A2D0002243F64403A9
:1005F0000292C4F202031A6843F6004442F48042B5
:100600001A601A68C4F2010402F480420292029A4B
:1006100029F003024FF6084C2244CFF6FF7C52F833
:100620000C3005F00C070F26BE40B343019E06FABE
:1006300007F73B4342F80C30A2684B6842EA0A07CE
:1006400043F60C4CDE0258BF22EA0A07A760C4F248
:10065000010CDCF800209E0242EA0A0758BF22EA99
:100660000A07CCF8007062689E0342EA0A0758BF86
:1006700022EA0A0767602268DB0342EA0A0758BFDA
:1006800022EA0A07276053E703B0BDE8F08F0000B5
:10069000426902EA0103914341EA034181617047E3
:1006A000002A08BF090481617047000040F204106D
:1006B000C2F200000068704740F2000040F20411EE
:1006C000C2F20000C2F2000100780A68104408601B
:1006D0007047000080B543F60040C4F20200016894
:1006E00041F400710160016841F4806101600168BA
:1006F00041F480710160032000F086F80F2000F0C3
:1007000005F800F027F8002080BD000070B540F229
:100710000006C2F2000640F208013278C2F200017F
:100720004FF47A730968B3FBF2F20446B1FBF2F1BD
:10073000084600F037FB0F2C4FF0010508D838B9F8
:100740004FF0FF3021460022002500F031F87460A0
:10075000284670BD82B0002043F640010190C4F2EB
:1007600002014A6842F480424A604A6802F48042C8
:100770000192019A0090086840F080500860086873
:1007800000F080500090009802B07047002848BFE9
:10079000704700F01F01012202FA01F11C2202EA57
:1007A000D0004EF20012CEF20002815070470000DD
:1007B00010B54EF60C5CCEF2000CDCF80030C3F342
:1007C000022E8EF00704042C28BF0424BEF103037C
:1007D0004FF0FF3E0EFA04F438BF0023A1439940C6
:1007E0000EFA03F39A43114300F00F0200F1604345
:1007F0000901043A03F564436244002848BF02F14A
:100800000C03197010BD00004EF60C51CEF2000121
:100810000A684FF6FF031A4060F30A2242F0806034
:1008200040F0FD7008607047002804BF0120704749
:100830002DE9F04143F60808C4F202080446D8F84E
:10084000F8030D4600F00F00884207D288F8F853ED
:10085000D8F8F80300F00F00A84277D1206881078C
:1008600017D5410705D5D8F8001041F4E051C8F874
:100870000010010705D5D8F8001041F46041C8F810
:100880000010D8F80010A26821F0F0011143C8F858
:100890000010C00740D1D8F8F80300F00F00A842BC
:1008A00007D988F8F853D8F8F80300F00F00A842E9
:1008B0004CD12068410707D5D8F80010E26821F430
:1008C000E0511143C8F80010000708D5D8F800001F
:1008D000216920F4604040EAC100C8F8000000F03F
:1008E00055F8D8F8001041F62852C1F30311C0F6AC
:1008F0000002515C40F2080220FA01F140F20400CB
:10090000C2F200000068C2F200021160FFF7FEFEB2
:100910000020BDE8F08100BF6068811E022907D277
:1009200058F8081C89015CBF0120BDE8F08111E086
:10093000012807D158F8081C89035CBF0120BDE8D5
:10094000F08107E058F8081C890703D40120BDE8AE
:10095000F08100BFD8F8001021F003010843C8F867
:100960000000FFF7A3FE064641F28837D8F80000E2
:10097000616800F00C00B0EB810F8CD0FFF796FEA1
:10098000801BB842F2D90320BDE8F08110B543F6D0
:100990000404C4F20204606800F00C0008280BD0C4
:1009A000042819BF42F20040C0F2F40041F60030C2
:1009B000C0F2B70010BD00BF20682168236849025B
:1009C00041F60031C0F2B70100F03F02C3F38810D6
:1009D0005CBF42F20041C0F2F401A1FB0001002320
:1009E000FFF76AFC21680222C1F3014102EB4101D9
:1009F000B0FBF1F010BD0000002804BF01207047DB
:100A00002DE9F04182B00446007843F60006C007A5
:100A1000C4F202060CD0B06800F00C00042840F0CC
:100A200081803068800303D56068002800F0688109
:100A3000207880071BD5B06810F00C0F09D0B06883
:100A400000F00C00082840F087807068400200F138
:100A500083803068800703D5E068012840F050812A
:100A60003068216920F0F80040EAC1003060207849
:100A7000000713D4207840072AD4A569002D00F080
:100A80003A81B06800F00C00082840F0A580012DE4
:100A900040F00E81012002B0BDE8F08160690028BD
:100AA00000F082800020C4F247200121C0F8801E9F
:100AB000FFF7FCFD054600BF706F8007DAD4FFF733
:100AC000F5FD401B0228F7D9032002B0BDE8F081F4
:100AD000306C5FEAC0080AD400200190306C40F00E
:100AE00080503064306C00F080500190019847F2E3
:100AF0000007C4F200073868C00547D4386840F4DE
:100B000080703860FFF7D2FD054600BF3868C00529
:100B10003CD4FFF7CBFD401B0228F7D9032002B0DD
:100B2000BDE8F081B06800F00C00082803D17068BF
:100B300040023FF576AF61683068B1F5803F07D07D
:100B4000B1F5A02F40F09A8040F4802030603068EA
:100B500040F4803030609AE0E068002840F2000005
:100B6000C4F247205CD001210160FFF79FFD0546DC
:100B7000306880073FF574AFFFF798FD401B0228EF
:100B8000F6D9032002B0BDE8F08100BFA168306F44
:100B9000012905D0052955D140F004003067306F98
:100BA00040F00100306756E00020C4F247200021E9
:100BB000C0F8801EFFF77AFD054600BF706F800702
:100BC0007FF558AFFFF772FD401B0228F6D90320CE
:100BD00002B0BDE8F08100BF0027C4F24727002023
:100BE0003866FFF763FD022D05460DD130688001A0
:100BF00040F18A80FFF75AFD401B02284FF00300A6
:100C0000F4D902B0BDE8F0813068800173D5FFF7F8
:100C10004DFD401B02284FF00300F5D9F1E700BF5E
:100C200000210160FFF742FD054600BF30688007E4
:100C30007FF51DAFFFF73AFD401B02284FF0030080
:100C4000F4D9DEE720F001003067306F002920F092
:100C5000040030677AD0FFF729FD054641F2883756
:100C6000306F800700F18480FFF720FD401BB84201
:100C7000F6D9032002B0BDE8F08100BF20F4803037
:100C800030603068002920F4802030607AD0FFF78F
:100C90000DFD0546306880033FF5CAAEFFF706FD3F
:100CA000401B6428F6D9032002B0BDE8F08100BFE4
:100CB0007068E16900F480028A4221D1216A00F063
:100CC0003F028A421CD147F6C071626A0140B1EB13
:100CD000821F15D1A16A4FF6FF73C903994300F42F
:100CE0004032A1F580318A420AD1E16A00F0706099
:100CF000B0EB016F04D1002002B0BDE8F08100BF6D
:100D0000012002B0BDE8F08104F11C052FCD08439D
:100D100040EA8210D9034FF6FF729143A1F580316A
:100D200040EA05600843706001203866FFF7BEFCAA
:100D3000044600BF30688001DDD4FFF7B7FC001B1C
:100D400002284FF00300F5D95BE700BFFFF7AEFCC8
:100D5000054641F2883700BF306F800708D5FFF79E
:100D6000A5FC401BB8424FF00300F5D949E700BF8E
:100D7000B8F1000F3FF581AE306C20F08050306448
:100D80007BE600BFFFF792FC054600BF306880039A
:100D90007FF54EAEFFF78AFC401B64284FF003003E
:100DA000F4D92EE7411E0020B0EB116F1CBF0120CB
:100DB00070474EF21002CEF2000251604EF62351FF
:100DC000CEF20001F0230B70072190601160704794
:100DD000704700007047000090F83C20012A04BFD3
:100DE00002207047B0B501F108053CCDD1E900CE35
:100DF00023F47C5322F470521A432EF4F0431A4326
:100E00002CF4E0431A4324F4C0431A432A43C9692B
:100E100022F48042036811435964002180F83C1099
:100E20000020B0BD90F83C20012A4FF0020254D0BF
:100E300010B580F83D200268D2F804E0D2F808C06E
:100E40000C682EF07003234341F2FF74C4F20004D7
:100E5000A24253600EDC40F2FF73C4F200039A42D8
:100E600016DCB2F1804F2BD040F20043C4F20003F5
:100E700024E000BF40F2FF33C4F201039A4213DCC6
:100E800041F60003C4F200039A4219D0002313E094
:100E900040F60003C4F200039A4211D040F600432A
:100EA000C4F200030AE000BF44F20003C4F20103ED
:100EB0009A4205D040F20043C4F201039A4204D1A1
:100EC00049682CF08003194391600121002280F8C9
:100ED0003D1080F83C20BDE81040104670470000EF
:100EE000002804BF0120704710B5044690F83D006B
:100EF00028B9002084F83C00204600F01FF80220AA
:100F000084F83D002068211D00F04CFE012084F88B
:100F1000460084F83E0084F83F0084F8400084F8DE
:100F2000410084F8420084F8430084F8440084F8C7
:100F3000450084F83D00002010BD000010B582B0CF
:100F4000006840F20041C4F20101884216D000213D
:100F5000C4F2010188422DD10020019043F64400E3
:100F6000C4F202000168192441F001010160006827
:100F700000F001000190019810E000BF00200090F7
:100F800043F64400C4F2020001682C2441F002013F
:100F90000160006800F002000090009820460021E7
:100FA0000022FFF705FC204602B0BDE81040FFF725
:100FB000EDBB00BF02B010BD90F83D1001291CBF71
:100FC00001207047022180F83D10006841F2FF7255
:100FD000C168C4F20002904241F00101C1600DDC21
:100FE00040F2FF71C4F20001884215DCB0F1804F7D
:100FF0002AD040F20041C4F2000123E040F2FF3168
:10100000C4F20101884213DC41F60001C4F2000180
:10101000884219D0002113E040F60001C4F200011B
:10102000884211D040F60041C4F200010AE000BF3E
:1010300044F20001C4F20101884205D040F20041AF
:10104000C4F20101884206D1816801F00701062936
:1010500004BF00207047016841F0010101600020D9
:101060007047000090F83C20012A4FF002026CD03B
:1010700080B580F83D20D0F800C04FF67772DCF8DC
:10108000083023EA0202CCF808200B684F2B29DC39
:101090001F2B45DD202B46D0302B44D0402B40F079
:1010A000AF80D1F804E0C968DCF82030DCF82020FB
:1010B00022F00102CCF82020DCF8182022F0F00207
:1010C00042EA011123F00A0242EA0E02CCF818109B
:1010D000CCF82020DCF8081041F0470121F0300165
:1010E00028E000BF6F2B33DDB3F5005F74D0B3F59C
:1010F000805F21D0702B40F08380D1E901E3C96883
:10110000DCF8082043EA0E0322F47F4243EA01217F
:101110001143CCF80810DCF8081041F0770109E021
:101120000BB1102B6CD1DCF8081021F070011943C1
:1011300041F00701CCF808100022012180F83D1091
:10114000002180F83C10BDE880401046704700BF89
:10115000502B21D0602B53D1D1F804E0C968DCF8C2
:101160002030DCF8202022F01002CCF82020DCF81F
:10117000182022F4704242EA013123F0A00242EA30
:101180000E12CCF81810CCF82020DCF8081041F032
:10119000670121F01001CDE7D1F804E0C968DCF85F
:1011A0002030DCF8202022F00102CCF82020DCF8EE
:1011B000182022F0F00242EA011123F00A0242EA6A
:1011C0000E02CCF81810CCF82020DCF8081041F002
:1011D000570121F02001ADE7D1E901E3C968DCF84E
:1011E000082043EA0E0322F47F4243EA012111431F
:1011F000CCF80810DCF8081041F480419AE700BFF1
:1012000001229AE77047000070B504460068C5687F
:101210000669B10716D515F0020113D06FF002016F
:101220000161012121778069800703D02046FFF703
:10123000E9FF05E0204600F08FF8204600F0CEF9E7
:1012400000202077700719D515F0040016D020680B
:101250006FF00401016102212177806910F4407F61
:1012600004D02046FFF7CEFF06E000BF204600F086
:1012700073F8204600F0B2F900202077300717D528
:1012800015F0080014D020686FF0080101610421F6
:101290002177C069800703D02046FFF7B3FF05E040
:1012A000204600F059F8204600F098F900202077F9
:1012B000F00619D515F0100016D020686FF0100157
:1012C000016108212177C06910F4407F04D02046D5
:1012D000FFF798FF06E000BF204600F03DF82046EB
:1012E00000F07CF900202077F00718BF15F001000E
:1012F00002D1300609D412E020686FF001010161CB
:10130000204600F071FA300609D515F0800006D0AD
:1013100020686FF0800101612046FFF759FD7006DB
:1013200009D515F0400006D020686FF0400101613A
:10133000204600F06BFAB00658BF70BD15F02000D3
:1013400008D021686FF0200220460A61BDE8704095
:10135000FFF740BD70BD00007047000090F83C30C2
:10136000012B04BF022070474FEAB202032A00F2A9
:10137000FF802DE9F043DFE802F003B13F7F00BFBB
:10138000036840F200461C6A1A6A24F0020422F044
:1013900001021A621A46D3F804C052F818EF8F6897
:1013A00043F48065C4F20106B54244EA070405D15E
:1013B000CF6824F00C0427F004073C430F68B542C3
:1013C00006D1D1E905582CF440762E4346EA080CA4
:1013D0002EF073063743C3F804C09F614F68096954
:1013E0005F631C629F6947F008079F619F6927F050
:1013F00004079F61B1E000BF036840F200481C6A27
:101400001A6A24F4007422F480721A621A46D3F81D
:1014100004C052F81CEF8F6843F48065C4F20108E1
:10142000454544EA072408D1CF6840F2FF463F0211
:1014300024F4406427EA06063443D1F80090454579
:1014400006D1D1E905562CF440572E4347EA061C35
:101450002EF0730747EA0907C3F804C0DF614F683D
:101460000969DF631C62DF6947F00807DF61DF6934
:1014700027F00407DF6170E0036840F20045D3F80D
:1014800020C01A6A43F4806722F480521A621A4616
:101490005C6852F81C8FD1F800E08E68C4F2010538
:1014A000AF4204D14D6924F4804444EA85142CF4FD
:1014B000005747EA063728F4E64646EA0E265C60FF
:1014C000DE614E6809691E641F62DF6947F40067C8
:1014D000DF61DF6927F48067DF613DE0036840F288
:1014E00000481C6A1A6A24F0200422F010021A62D2
:1014F0001A46D3F804C052F818EF8F6843F4806599
:10150000C4F20108454544EA071407D1CF686FF0DB
:10151000400624F0C00406EA07163443D1F80090D0
:10152000454506D1D1E905562CF440672E4347EADC
:10153000860C2EF4E64747EA0927C3F804C09F61EA
:101540004F6809699F631C629F6947F400679F6148
:101550009F6927F480679F6109021368194311602E
:101560000021BDE8F043002280F83C200846704787
:101570000121002280F83C2008467047002804BF63
:101580000120704710B5044690F83D0028B90020AE
:1015900084F83C00204600F01FF8022084F83D004B
:1015A0002068211D00F0FEFA012084F8460084F82E
:1015B0003E0084F83F0084F8400084F8410084F83D
:1015C000420084F8430084F8440084F8450084F81D
:1015D0003D00002010BD0000704700007047000073
:1015E000F1B1042908D0082914BF41224022825CAD
:1015F000012A05D024E000BF3F22825C012A1FD1CE
:101600000222082920D0042914BF80F8412080F844
:101610003F204FEAB103032B4FF001020DD81BE02E
:1016200090F83E20012A0BD1022280F83E204FEA9A
:10163000B103032B4FF001020ED91046704700BFD3
:1016400001221046704700BF80F840204FEAB103E6
:10165000032B4FF00102F0D841F6385C0068C0F669
:10166000000C5CF823C0C36801F01F0143EA0C03BF
:10167000C360036A02FA01F123EA01020262026A0C
:10168000114341F2FF72C4F20002904201620BDC8E
:1016900040F2FF71C4F20001884213DCB0F1804FC8
:1016A00036D040F2004115E040F2FF31C4F20101B2
:1016B000884215DC41F60001C4F20001884227D0BF
:1016C000002115E040F60001C4F2000188421FD05D
:1016D00040F60041C4F20001884219D01FE000BF6B
:1016E00044F20001C4F20101884211D040F20041ED
:1016F000C4F20101884212D1416C40F2004340F42F
:101700008062C4F2010341F400419A42416406D16F
:10171000816801F00701062904BF002070470168B5
:1017200041F0010101600020704700004FEAB10262
:10173000032A4FF0010C54D810B541F6485E0368F7
:10174000C0F6000E5EF822E0DA6802EA0E02DA6005
:1017500001F01F0E1C6A0CFA0EF224EA02021A6251
:1017600040F20042D3F820C043F48064C4F2010286
:101770009442C3F820C00DD11A6A41F211142242DA
:1017800008D11A6A40F24444224203D15A6C22F42E
:1017900000425A641A6A41F21114224208D11A6AAC
:1017A00040F24444224203D11A6822F001021A6036
:1017B0000829BDE810400FD0042909D000294FF0B6
:1017C000010114BF80F8411080F83E1007E000BF0F
:1017D000012180F83F1002E0012180F840104FF015
:1017E000000C60467047000040F2BC01C2F20001EC
:1017F00000680968884218BF704741F20040C4F28F
:1018000002004FF48041FEF743BF00007047000024
:10181000FEE70000F0B587B0002643F630000696DC
:10182000CDE90466CDE902660196C4F202000168C2
:1018300041F2004441F0010101600168C4F2020478
:1018400001F001010191019901960168002241F026
:101850008001016001684FF4804701F0800101912F
:1018600001990196016841F002010160016801F0EF
:101870000201019101990196016841F01001016096
:10188000016801F01001019101990196016841F090
:101890002001016000684FF4804100F020000190B9
:1018A00001982046FEF7FCFE042002904FF48810B9
:1018B00002ADCDE90306A4F580502946FEF718FED7
:1018C0000120CDE903062046294602970596FEF73A
:1018D0000FFE082000210022FEF76AFF0820FEF715
:1018E00055FF07B0F0BD000070B59CB0002540F278
:1018F0007400C4F201050021C2F2000044F24F62FC
:1019000042F20F731591CDE913111191CDE90F1129
:10191000CDE90D11CDE90B11CDE90911CDE9071183
:10192000CDE90511CDE90311CDE90111C0E900525E
:10193000C0E90213C0E904118161FFF7D1FA002860
:1019400018BFFEF79DFD4FF48050129040F27400D6
:10195000C2F2000012A9FFF785FB002818BFFEF7AE
:101960008FFD40F27400C2F20000FFF707FE00286E
:1019700018BFFEF785FD40F274000024C2F200009B
:1019800010A9CDE91044FFF74DFA002818BFFEF763
:1019900077FD6020099041F28830CDE90A0440F2D9
:1019A0007400C2F2000009A90422CDE90C44CDE97B
:1019B0000E44FFF7D3FC002818BFFEF761FD40F28C
:1019C00074044FF40050C2F200040026069001A9EE
:1019D00020460596CDE90366CDE901660896FFF736
:1019E000FBF9002818BFFEF74BFD20681B96A842A4
:1019F000CDE919661896179602D01CB070BD00BFCD
:101A0000002043F630011690C4F202010A6842F049
:101A100010020A60096801F01001169116994FF43E
:101A2000006117910221CDE918101A9001201B9036
:101A300005F5883017A9FEF75BFD1CB070BD0000EE
:101A400080B586B040F2BC0040F200420021C2F2F4
:101A50000000C4F2010240F2077342F20F7C0591CC
:101A6000CDE90311CDE90011C0E90023C0E9021C52
:101A7000C0E904118161FFF733FA002818BFFEF7AF
:101A8000FFFC4FF48050029040F2BC00C2F2000014
:101A900002A9FFF7E7FA002818BFFEF7F1FC40F2B1
:101AA000BC00C2F200006946FFF7BCF9002818BF6D
:101AB000FEF7E6FC06B080BDFEE70000FEE7000092
:101AC0007047000070470000FEF7F6BD70B592B099
:101AD00006AC20463021FEF767FC002543F64000A7
:101AE0000595CDE90355CDE901550095C4F20200F5
:101AF0000168022641F080510160006800F08050CA
:101B00000090009847F200000095C4F200000168C0
:101B100066F38F310160006800F440400090009847
:101B2000012006904FF4803007904FF480000D9014
:101B300008200E90B420CDE90F0604201190204615
:101B40000C96FEF759FF18B172B600BFFEE700BF52
:101B50000F20CDE901064FF4A05004904FF48050BF
:101B6000059001A804210395FEF75EFE10B172B640
:101B7000FEE700BF12B070BD4EF68850CEF20000F6
:101B8000016841F4700101607047000040F2740088
:101B9000C2F20000FFF738BB40F2BC00C2F2000006
:101BA000FFF732BB10B540F6FF3E0368C4F2000EEB
:101BB00040F2004C7045C4F2010C25DCB0F1804FBE
:101BC0002FD040F20042C4F20002904229D040F6E9
:101BD0000002C4F20002904223D041F6FF72C4F228
:101BE0000002904227DC70453ADCB0F1804F5BD0B8
:101BF00040F20042C4F20002904255D040F600028A
:101C0000C4F200024EE000BF40F60042C4F20002FF
:101C1000904206D0604504D00022C4F201029042F6
:101C2000DBD14A6823F07003134341F6FF72C4F21C
:101C300000029042D7DD43F6FF72C4F201029042E7
:101C400020DC42F20002C4F2000290422CD00022BA
:101C5000C4F20102904227D0604525D028E000BFA1
:101C600040F60042C4F2000290421DD041F600024C
:101C7000C4F20002904217D041F60042C4F20002C2
:101C800010E000BF44F20002C4F2010290420BD007
:101C900044F60002C4F20102904205D044F2004230
:101CA000C4F20102904203D1CA6823F44073134383
:101CB00023F080024B69D1F800E08C681A4302607F
:101CC000C46240F48062C0F828E0624504BF09693C
:101CD0000163012141610169C90708BF10BD0169A4
:101CE00021F00101016110BDFEE70000FEF7F2FCEA
:101CF000FFF7ECFEFFF78EFDFFF7F6FDFFF7A0FE06
:101D000040F27400C2F20000FFF756F9FEE7F1EE70
:101D1000100A4FF6FF71C0F2C03120EA010040F016
:101D20004070E1EE100A7047000000000000000063
:101D30000102030406070809020000000400000075
:101D40000800000010000000FDFFFFFFFBFFFFFF89
:101D5000F7FFFFFFEFFFFFFFFFFDFFFFFFFBFFFFB1
:101D6000FFF7FFFFFFEFFFFF881D000800000020C6
:101D70001000000010020008981D0008100000204C
:101D8000F80600003002000801000000100000000A
:081D90000024F4000000000033
:04000005080001AD41
:00000001FF
